ZCL_ABAP02_PESSOA             CONSTRUCTOR                   1  210002 0000ABAP02      20190723ABAP02      201907230       0 0                                                                                                                                     000000000000                                                            
ZCL_ABAP02_PESSOA             CPF                           1  010003 0000ABAP02      20190723            000000000       0 1Y_ABAP02_CPF_DADOS                                                                                                                   000000000000                                                            
ZCL_ABAP02_PESSOA             DATA_NASCIMENTO               1  010002 0000ABAP02      20190723ABAP02      201907230       0 1Y_ABAP02_DATA_DADOS                                                                                                                  000000000000                                                            
ZCL_ABAP02_PESSOA             ESCREVER_NOME                 1  210001 0000ABAP02      20190723ABAP02      201907230       0 0                                                                                                                                     000000000000                                                            
ZCL_ABAP02_PESSOA             GET_DATA_NASCIMENTO           1  210003 0000ABAP02      20190723ABAP02      201907230       0 0                                                                                                                                     000000000000                                                            
ZCL_ABAP02_PESSOA             NOME                          1  010001 0000ABAP02      20190723ABAP02      201907230       0 1Y_ABAP02_NOME_DADOS                                                                                                                  000000000000                                                            
ZCL_ABAP02_PESSOA             SET_CPF                       1  110004 0000ABAP02      20190723            000000000       0 0                                                                                                                                     000000000000                                                            
