ZCL_ABAP02_PESSOA             CONSTRUCTOR                   P_DATA_NASCIMENTO             100020000ABAP02      20190723            00000000011Y_ABAP02_DATA_DADOS                                                                                                                  000000000000                                                                                                                                     0
ZCL_ABAP02_PESSOA             CONSTRUCTOR                   P_NOME                        100010000ABAP02      20190723            00000000011Y_ABAP02_NOME_DADOS                                                                                                                  000000000000                                                                                                                                     0
ZCL_ABAP02_PESSOA             GET_DATA_NASCIMENTO           R_DATA_NASCIMENTO             100010000ABAP02      20190723            00000000301Y_ABAP02_DATA_DADOS                                                                                                                  000000000000                                                                                                                                     0
ZCL_ABAP02_PESSOA             SET_CPF                       P_CPF                         100010000ABAP02      20190723            00000000011Y_ABAP02_CPF_DADOS                                                                                                                   000000000000                                                                                                                                     0
