ZCL_ABAP02_RELATORIO          DEU_CERTO                     1  210002 0000ABAP02      20190730            000000000       0 0                                                                                                                                     000000000000                                                            
ZCL_ABAP02_RELATORIO          DEU_CERTO_O_RELATORIO         1  010001 0000ABAP02      20190730            000000000       0 1ABAP_BOOL                                                                                                                            000000000000                                                            
ZCL_ABAP02_RELATORIO          EXIBE_RELATORIO               1  210001 0000ABAP02      20190730            000000000       0 0                                                                                                                                     000000000000                                                            
ZCL_ABAP02_RELATORIO          EXPORTA_RELATORIO             1  210003 0000ABAP02      20190730            000000000       0 0                                                                                                                                     000000000000                                                            
ZCL_ABAP02_RELATORIO          RELATORIO                     1  210001 0000ABAP02      20190730ABAP02      201907300       0 4                                                                                                                                     000904000959                                                            
