ZCL_ABAP02_RELATORIO          DEU_CERTO                     RESULT                        100010000ABAP02      20190730            00000000301ABAP_BOOL                                                                                                                            000000000000                                                                                                                                     0
ZCL_ABAP02_RELATORIO          EXIBE_RELATORIO               DADOS_RELATORIO               100010000ABAP02      20190730            00000000013ZIF_DADOS_RELATORIO                                                                                                                  000000000000                                                                                                                                     0
ZCL_ABAP02_RELATORIO          EXPORTA_RELATORIO             ARG0                          100010000ABAP02      20190730            00000000013ZIF_TIPO_ARQUIVO                                                                                                                     000000000000                                                                                                                                     0
