ZCL_ABAP02_ARVORE_B_NO        ADICIONA                      1  210001 0000ABAP02      20190724            000000000       0 0                                                                                                                                     000000000000                                                            
ZCL_ABAP02_ARVORE_B_NO        CHAVE                         1  210003 0000ABAP02      20190724ABAP02      201907240       0 1I                                                                                                                                    000000000000                                                            
ZCL_ABAP02_ARVORE_B_NO        DIR                           1  010002 0000ABAP02      20190724            000000000       0 3ZCL_ABAP02_ARVORE_B_NO                                                                                                               000000000000                                                            
ZCL_ABAP02_ARVORE_B_NO        EM_ORDEM                      1  210003 0000ABAP02      20190724            000000000       0 0                                                                                                                                     000000000000                                                            
ZCL_ABAP02_ARVORE_B_NO        ESQ                           1  010001 0000ABAP02      20190724            000000000       0 3ZCL_ABAP02_ARVORE_B_NO                                                                                                               000000000000                                                            
ZCL_ABAP02_ARVORE_B_NO        POS_ORDEM                     1  210004 0000ABAP02      20190724ABAP02      201907240       0 0                                                                                                                                     000000000000                                                            
ZCL_ABAP02_ARVORE_B_NO        PRE_ORDEM                     1  210002 0000ABAP02      20190724            000000000       0 0                                                                                                                                     000000000000                                                            
