ZCL_ABAP02_ARVORE_B           ADICIONA                      1  210001 0000ABAP02      20190724            000000000       0 0                                                                                                                                     000000000000                                                            
ZCL_ABAP02_ARVORE_B           EM_ORDEM                      1  210003 0000ABAP02      20190724ABAP02      201907240       0 0                                                                                                                                     000000000000                                                            
ZCL_ABAP02_ARVORE_B           NO                            1  010001 0000ABAP02      20190724ABAP02      201907240       0 3ZCL_ABAP02_ARVORE_B_NO                                                                                                               000000000000                                                            
ZCL_ABAP02_ARVORE_B           POS_ORDEM                     1  210004 0000ABAP02      20190724            000000000       0 0                                                                                                                                     000000000000                                                            
ZCL_ABAP02_ARVORE_B           PRE_ORDEM                     1  210002 0000ABAP02      20190724ABAP02      201907240       0 0                                                                                                                                     000000000000                                                            
