ZCL_ABAP02_TABELAS            ADD_PESSOA                    O_PESSOA                      100010000ABAP02      20190725            00000000013ZCL_ABAP16_PESSOA                                                                                                                    000000000000                                                                                                                                     0
ZCL_ABAP02_TABELAS            GET_PESSOA                    NOME_NAO_ENCONTRADO           100010000ABAP02      20190725            00000000000                                                                                                                                     000000000000                                                                                                                                     0
ZCL_ABAP02_TABELAS            GET_PESSOA                    P_NOME                        100010000ABAP02      20190725            00000000011STRING                                                                                                                               000000000000                                                                                                                                     0
ZCL_ABAP02_TABELAS            GET_PESSOA                    R_PESSOA                      100020000ABAP02      20190725ABAP02      20190725303ZCL_ABAP16_PESSOA                                                                                                                    000000000000                                                                                                                                     0
