ZCL_ABAP02_TABELAS            ADD_PESSOA                    1  210001 0000ABAP02      20190725ABAP16      201907250       0 0                                                                                                                                     000000000000                                                            
ZCL_ABAP02_TABELAS            GET_PESSOA                    1  210002 0000ABAP02      20190725ABAP16      201907250       0 0                                                                                                                                     000000000000                                                            
ZCL_ABAP02_TABELAS            OUTRAS_PESSOAS                1  010002 0000ABAP02      20190725ABAP02      201907250       0 4                                                                                                                                     001304001375                                                            
ZCL_ABAP02_TABELAS            PESSOAS                       1  010001 0000ABAP02      20190725            000000000       0 1TY_PESSOAS                                                                                                                           000000000000                                                            
ZCL_ABAP02_TABELAS            REGISTRO_PESSOA               1  010001 0000ABAP02      20190725ABAP02      201907250       0 4                                                                                                                                     000404000727                                                            
ZCL_ABAP02_TABELAS            TY_PESSOAS                    1  010002 0000ABAP02      20190725ABAP02      201907250       0 4                                                                                                                                     000904000971                                                            
