ZCL_ABAP02_CALC               ADD                           1  210001 0000ABAP02      20190729            000000000       0 0                                                                                                                                     000000000000                                                            
ZCL_ABAP02_CALC               DIV                           1  210003 0000ABAP02      20190729ABAP02      201907290    X  0 0                                                                                                                                     000000000000                                                            
ZCL_ABAP02_CALC               MUL                           1  210004 0000ABAP02      20190729ABAP02      201907290       0 0                                                                                                                                     000000000000                                                            
ZCL_ABAP02_CALC               SUB                           1  210002 0000ABAP02      20190729            000000000       0 0                                                                                                                                     000000000000                                                            
