ZCL_ABAP02_CALC               ADD                           NUM1                          100010000ABAP02      20190729            00000000011I                                                                                                                                    000000000000                                                                                                                                     0
ZCL_ABAP02_CALC               ADD                           NUM2                          100020000ABAP02      20190729            00000000011I                                                                                                                                    000000000000                                                                                                                                     0
ZCL_ABAP02_CALC               ADD                           RES                           100030000ABAP02      20190729            00000000301I                                                                                                                                    000000000000                                                                                                                                     0
ZCL_ABAP02_CALC               DIV                           CX_SY_ZERODIVIDE              100010000ABAP02      20190729            00000000000                                                                                                                                     000000000000                                                                                                                                     0
ZCL_ABAP02_CALC               DIV                           NUM1                          100010000ABAP02      20190729            00000000011I                                                                                                                                    000000000000                                                                                                                                     0
ZCL_ABAP02_CALC               DIV                           NUM2                          100020000ABAP02      20190729            00000000011I                                                                                                                                    000000000000                                                                                                                                     0
ZCL_ABAP02_CALC               DIV                           RES                           100030000ABAP02      20190729            00000000301I                                                                                                                                    000000000000                                                                                                                                     0
ZCL_ABAP02_CALC               MUL                           NUM1                          100010000ABAP02      20190729            00000000011I                                                                                                                                    000000000000                                                                                                                                     0
ZCL_ABAP02_CALC               MUL                           NUM2                          100020000ABAP02      20190729            00000000011I                                                                                                                                    000000000000                                                                                                                                     0
ZCL_ABAP02_CALC               MUL                           RES                           100030000ABAP02      20190729            00000000301I                                                                                                                                    000000000000                                                                                                                                     0
ZCL_ABAP02_CALC               SUB                           NUM1                          100010000ABAP02      20190729            00000000011I                                                                                                                                    000000000000                                                                                                                                     0
ZCL_ABAP02_CALC               SUB                           NUM2                          100020000ABAP02      20190729            00000000011I                                                                                                                                    000000000000                                                                                                                                     0
ZCL_ABAP02_CALC               SUB                           RES                           100030000ABAP02      20190729            00000000301I                                                                                                                                    000000000000                                                                                                                                     0
